{
  "_format": "hh-sol-artifact-1",
  "contractName": "Hogwarts",
  "sourceName": "contracts/Hogwarts.sol",
  "abi": [
    {
      "inputs": [],
      "stateMutability": "nonpayable",
      "type": "constructor"
    },
    {
      "anonymous": false,
      "inputs": [
        {
          "indexed": true,
          "internalType": "address",
          "name": "account",
          "type": "address"
        },
        {
          "indexed": true,
          "internalType": "address",
          "name": "operator",
          "type": "address"
        },
        {
          "indexed": false,
          "internalType": "bool",
          "name": "approved",
          "type": "bool"
        }
      ],
      "name": "ApprovalForAll",
      "type": "event"
    },
    {
      "anonymous": false,
      "inputs": [
        {
          "indexed": true,
          "internalType": "address",
          "name": "previousOwner",
          "type": "address"
        },
        {
          "indexed": true,
          "internalType": "address",
          "name": "newOwner",
          "type": "address"
        }
      ],
      "name": "OwnershipTransferred",
      "type": "event"
    },
    {
      "anonymous": false,
      "inputs": [
        {
          "indexed": true,
          "internalType": "address",
          "name": "operator",
          "type": "address"
        },
        {
          "indexed": true,
          "internalType": "address",
          "name": "from",
          "type": "address"
        },
        {
          "indexed": true,
          "internalType": "address",
          "name": "to",
          "type": "address"
        },
        {
          "indexed": false,
          "internalType": "uint256[]",
          "name": "ids",
          "type": "uint256[]"
        },
        {
          "indexed": false,
          "internalType": "uint256[]",
          "name": "values",
          "type": "uint256[]"
        }
      ],
      "name": "TransferBatch",
      "type": "event"
    },
    {
      "anonymous": false,
      "inputs": [
        {
          "indexed": true,
          "internalType": "address",
          "name": "operator",
          "type": "address"
        },
        {
          "indexed": true,
          "internalType": "address",
          "name": "from",
          "type": "address"
        },
        {
          "indexed": true,
          "internalType": "address",
          "name": "to",
          "type": "address"
        },
        {
          "indexed": false,
          "internalType": "uint256",
          "name": "id",
          "type": "uint256"
        },
        {
          "indexed": false,
          "internalType": "uint256",
          "name": "value",
          "type": "uint256"
        }
      ],
      "name": "TransferSingle",
      "type": "event"
    },
    {
      "anonymous": false,
      "inputs": [
        {
          "indexed": false,
          "internalType": "string",
          "name": "value",
          "type": "string"
        },
        {
          "indexed": true,
          "internalType": "uint256",
          "name": "id",
          "type": "uint256"
        }
      ],
      "name": "URI",
      "type": "event"
    },
    {
      "inputs": [],
      "name": "GRYFFINDOR",
      "outputs": [
        {
          "internalType": "uint256",
          "name": "",
          "type": "uint256"
        }
      ],
      "stateMutability": "view",
      "type": "function"
    },
    {
      "inputs": [],
      "name": "HUFFLEPUFF",
      "outputs": [
        {
          "internalType": "uint256",
          "name": "",
          "type": "uint256"
        }
      ],
      "stateMutability": "view",
      "type": "function"
    },
    {
      "inputs": [],
      "name": "RAVENCLAW",
      "outputs": [
        {
          "internalType": "uint256",
          "name": "",
          "type": "uint256"
        }
      ],
      "stateMutability": "view",
      "type": "function"
    },
    {
      "inputs": [],
      "name": "SLYTHERIN",
      "outputs": [
        {
          "internalType": "uint256",
          "name": "",
          "type": "uint256"
        }
      ],
      "stateMutability": "view",
      "type": "function"
    },
    {
      "inputs": [
        {
          "internalType": "address",
          "name": "account",
          "type": "address"
        },
        {
          "internalType": "uint256",
          "name": "id",
          "type": "uint256"
        }
      ],
      "name": "balanceOf",
      "outputs": [
        {
          "internalType": "uint256",
          "name": "",
          "type": "uint256"
        }
      ],
      "stateMutability": "view",
      "type": "function"
    },
    {
      "inputs": [
        {
          "internalType": "address[]",
          "name": "accounts",
          "type": "address[]"
        },
        {
          "internalType": "uint256[]",
          "name": "ids",
          "type": "uint256[]"
        }
      ],
      "name": "balanceOfBatch",
      "outputs": [
        {
          "internalType": "uint256[]",
          "name": "",
          "type": "uint256[]"
        }
      ],
      "stateMutability": "view",
      "type": "function"
    },
    {
      "inputs": [
        {
          "internalType": "uint256",
          "name": "_id",
          "type": "uint256"
        },
        {
          "internalType": "uint256",
          "name": "_amount",
          "type": "uint256"
        }
      ],
      "name": "burn",
      "outputs": [],
      "stateMutability": "nonpayable",
      "type": "function"
    },
    {
      "inputs": [
        {
          "internalType": "uint256[]",
          "name": "_ids",
          "type": "uint256[]"
        },
        {
          "internalType": "uint256[]",
          "name": "_amounts",
          "type": "uint256[]"
        }
      ],
      "name": "burnBatch",
      "outputs": [],
      "stateMutability": "nonpayable",
      "type": "function"
    },
    {
      "inputs": [
        {
          "internalType": "address",
          "name": "_from",
          "type": "address"
        },
        {
          "internalType": "uint256[]",
          "name": "_burnIds",
          "type": "uint256[]"
        },
        {
          "internalType": "uint256[]",
          "name": "_burnAmounts",
          "type": "uint256[]"
        },
        {
          "internalType": "uint256[]",
          "name": "_mintIds",
          "type": "uint256[]"
        },
        {
          "internalType": "uint256[]",
          "name": "_mintAmounts",
          "type": "uint256[]"
        }
      ],
      "name": "burnForMint",
      "outputs": [],
      "stateMutability": "nonpayable",
      "type": "function"
    },
    {
      "inputs": [
        {
          "internalType": "address",
          "name": "account",
          "type": "address"
        },
        {
          "internalType": "address",
          "name": "operator",
          "type": "address"
        }
      ],
      "name": "isApprovedForAll",
      "outputs": [
        {
          "internalType": "bool",
          "name": "",
          "type": "bool"
        }
      ],
      "stateMutability": "view",
      "type": "function"
    },
    {
      "inputs": [
        {
          "internalType": "address",
          "name": "_to",
          "type": "address"
        },
        {
          "internalType": "uint256",
          "name": "_id",
          "type": "uint256"
        },
        {
          "internalType": "uint256",
          "name": "_amount",
          "type": "uint256"
        }
      ],
      "name": "mint",
      "outputs": [],
      "stateMutability": "nonpayable",
      "type": "function"
    },
    {
      "inputs": [
        {
          "internalType": "address",
          "name": "_to",
          "type": "address"
        },
        {
          "internalType": "uint256[]",
          "name": "_ids",
          "type": "uint256[]"
        },
        {
          "internalType": "uint256[]",
          "name": "_amounts",
          "type": "uint256[]"
        }
      ],
      "name": "mintBatch",
      "outputs": [],
      "stateMutability": "nonpayable",
      "type": "function"
    },
    {
      "inputs": [],
      "name": "name",
      "outputs": [
        {
          "internalType": "string",
          "name": "",
          "type": "string"
        }
      ],
      "stateMutability": "view",
      "type": "function"
    },
    {
      "inputs": [],
      "name": "owner",
      "outputs": [
        {
          "internalType": "address",
          "name": "",
          "type": "address"
        }
      ],
      "stateMutability": "view",
      "type": "function"
    },
    {
      "inputs": [],
      "name": "renounceOwnership",
      "outputs": [],
      "stateMutability": "nonpayable",
      "type": "function"
    },
    {
      "inputs": [
        {
          "internalType": "address",
          "name": "from",
          "type": "address"
        },
        {
          "internalType": "address",
          "name": "to",
          "type": "address"
        },
        {
          "internalType": "uint256[]",
          "name": "ids",
          "type": "uint256[]"
        },
        {
          "internalType": "uint256[]",
          "name": "amounts",
          "type": "uint256[]"
        },
        {
          "internalType": "bytes",
          "name": "data",
          "type": "bytes"
        }
      ],
      "name": "safeBatchTransferFrom",
      "outputs": [],
      "stateMutability": "nonpayable",
      "type": "function"
    },
    {
      "inputs": [
        {
          "internalType": "address",
          "name": "from",
          "type": "address"
        },
        {
          "internalType": "address",
          "name": "to",
          "type": "address"
        },
        {
          "internalType": "uint256",
          "name": "id",
          "type": "uint256"
        },
        {
          "internalType": "uint256",
          "name": "amount",
          "type": "uint256"
        },
        {
          "internalType": "bytes",
          "name": "data",
          "type": "bytes"
        }
      ],
      "name": "safeTransferFrom",
      "outputs": [],
      "stateMutability": "nonpayable",
      "type": "function"
    },
    {
      "inputs": [
        {
          "internalType": "address",
          "name": "operator",
          "type": "address"
        },
        {
          "internalType": "bool",
          "name": "approved",
          "type": "bool"
        }
      ],
      "name": "setApprovalForAll",
      "outputs": [],
      "stateMutability": "nonpayable",
      "type": "function"
    },
    {
      "inputs": [
        {
          "internalType": "uint256",
          "name": "_id",
          "type": "uint256"
        },
        {
          "internalType": "string",
          "name": "_uri",
          "type": "string"
        }
      ],
      "name": "setURI",
      "outputs": [],
      "stateMutability": "nonpayable",
      "type": "function"
    },
    {
      "inputs": [
        {
          "internalType": "bytes4",
          "name": "interfaceId",
          "type": "bytes4"
        }
      ],
      "name": "supportsInterface",
      "outputs": [
        {
          "internalType": "bool",
          "name": "",
          "type": "bool"
        }
      ],
      "stateMutability": "view",
      "type": "function"
    },
    {
      "inputs": [],
      "name": "symbol",
      "outputs": [
        {
          "internalType": "string",
          "name": "",
          "type": "string"
        }
      ],
      "stateMutability": "view",
      "type": "function"
    },
    {
      "inputs": [
        {
          "internalType": "uint256",
          "name": "",
          "type": "uint256"
        }
      ],
      "name": "tokenURI",
      "outputs": [
        {
          "internalType": "string",
          "name": "",
          "type": "string"
        }
      ],
      "stateMutability": "view",
      "type": "function"
    },
    {
      "inputs": [
        {
          "internalType": "address",
          "name": "newOwner",
          "type": "address"
        }
      ],
      "name": "transferOwnership",
      "outputs": [],
      "stateMutability": "nonpayable",
      "type": "function"
    },
    {
      "inputs": [
        {
          "internalType": "uint256",
          "name": "_id",
          "type": "uint256"
        }
      ],
      "name": "uri",
      "outputs": [
        {
          "internalType": "string",
          "name": "",
          "type": "string"
        }
      ],
      "stateMutability": "view",
      "type": "function"
    }
  ],
  "bytecode": "0x60806040523480156200001157600080fd5b5060405180608001604052806042815260200162004edc604291396200003d816200018660201b60201c565b506200005e620000526200019b60201b60201c565b620001a360201b60201c565b6040518060400160405280600881526020017f486f67776172747300000000000000000000000000000000000000000000000081525060049081620000a4919062000977565b506040518060400160405280600481526020017f485754530000000000000000000000000000000000000000000000000000000081525060059081620000eb919062000977565b5062000111336000600a604051806020016040528060008152506200026960201b60201c565b62000136336001600a604051806020016040528060008152506200026960201b60201c565b6200015b336002600a604051806020016040528060008152506200026960201b60201c565b62000180336003600a604051806020016040528060008152506200026960201b60201c565b62001057565b806002908162000197919062000977565b5050565b600033905090565b6000600360009054906101000a900473ffffffffffffffffffffffffffffffffffffffff16905081600360006101000a81548173ffffffffffffffffffffffffffffffffffffffff021916908373ffffffffffffffffffffffffffffffffffffffff1602179055508173ffffffffffffffffffffffffffffffffffffffff168173ffffffffffffffffffffffffffffffffffffffff167f8be0079c531659141344cd1fd0a4f28419497f9722a3daafe3b4186f6b6457e060405160405180910390a35050565b600073ffffffffffffffffffffffffffffffffffffffff168473ffffffffffffffffffffffffffffffffffffffff1603620002db576040517f08c379a0000000000000000000000000000000000000000000000000000000008152600401620002d29062000ae5565b60405180910390fd5b6000620002ed6200019b60201b60201c565b9050600062000302856200045060201b60201c565b9050600062000317856200045060201b60201c565b90506200033083600089858589620004d160201b60201c565b8460008088815260200190815260200160002060008973ffffffffffffffffffffffffffffffffffffffff1673ffffffffffffffffffffffffffffffffffffffff168152602001908152602001600020600082825462000391919062000b36565b925050819055508673ffffffffffffffffffffffffffffffffffffffff16600073ffffffffffffffffffffffffffffffffffffffff168473ffffffffffffffffffffffffffffffffffffffff167fc3d58168c5ae7397731d063d5bbf3d657854427343f4c083240f7aacaa2d0f6289896040516200041192919062000b82565b60405180910390a46200043083600089858589620004d960201b60201c565b6200044783600089898989620004e160201b60201c565b50505050505050565b60606000600167ffffffffffffffff81111562000472576200047162000708565b5b604051908082528060200260200182016040528015620004a15781602001602082028036833780820191505090505b5090508281600081518110620004bc57620004bb62000baf565b5b60200260200101818152505080915050919050565b505050505050565b505050505050565b6200050d8473ffffffffffffffffffffffffffffffffffffffff16620006da60201b62000d651760201c565b15620006d2578373ffffffffffffffffffffffffffffffffffffffff1663f23a6e6187878686866040518663ffffffff1660e01b81526004016200055695949392919062000cbd565b6020604051808303816000875af19250505080156200059557506040513d601f19601f8201168201806040525081019062000592919062000d8d565b60015b6200064657620005a462000dcc565b806308c379a003620006075750620005bb62000e27565b80620005c8575062000609565b806040517f08c379a0000000000000000000000000000000000000000000000000000000008152600401620005fe919062000f03565b60405180910390fd5b505b6040517f08c379a00000000000000000000000000000000000000000000000000000000081526004016200063d9062000f9d565b60405180910390fd5b63f23a6e6160e01b7bffffffffffffffffffffffffffffffffffffffffffffffffffffffff1916817bffffffffffffffffffffffffffffffffffffffffffffffffffffffff191614620006d0576040517f08c379a0000000000000000000000000000000000000000000000000000000008152600401620006c79062001035565b60405180910390fd5b505b505050505050565b6000808273ffffffffffffffffffffffffffffffffffffffff163b119050919050565b600081519050919050565b7f4e487b7100000000000000000000000000000000000000000000000000000000600052604160045260246000fd5b7f4e487b7100000000000000000000000000000000000000000000000000000000600052602260045260246000fd5b600060028204905060018216806200077f57607f821691505b60208210810362000795576200079462000737565b5b50919050565b60008190508160005260206000209050919050565b60006020601f8301049050919050565b600082821b905092915050565b600060088302620007ff7fffffffffffffffffffffffffffffffffffffffffffffffffffffffffffffffff82620007c0565b6200080b8683620007c0565b95508019841693508086168417925050509392505050565b6000819050919050565b6000819050919050565b600062000858620008526200084c8462000823565b6200082d565b62000823565b9050919050565b6000819050919050565b620008748362000837565b6200088c62000883826200085f565b848454620007cd565b825550505050565b600090565b620008a362000894565b620008b081848462000869565b505050565b5b81811015620008d857620008cc60008262000899565b600181019050620008b6565b5050565b601f8211156200092757620008f1816200079b565b620008fc84620007b0565b810160208510156200090c578190505b620009246200091b85620007b0565b830182620008b5565b50505b505050565b600082821c905092915050565b60006200094c600019846008026200092c565b1980831691505092915050565b600062000967838362000939565b9150826002028217905092915050565b6200098282620006fd565b67ffffffffffffffff8111156200099e576200099d62000708565b5b620009aa825462000766565b620009b7828285620008dc565b600060209050601f831160018114620009ef5760008415620009da578287015190505b620009e6858262000959565b86555062000a56565b601f198416620009ff866200079b565b60005b8281101562000a295784890151825560018201915060208501945060208101905062000a02565b8683101562000a49578489015162000a45601f89168262000939565b8355505b6001600288020188555050505b505050505050565b600082825260208201905092915050565b7f455243313135353a206d696e7420746f20746865207a65726f2061646472657360008201527f7300000000000000000000000000000000000000000000000000000000000000602082015250565b600062000acd60218362000a5e565b915062000ada8262000a6f565b604082019050919050565b6000602082019050818103600083015262000b008162000abe565b9050919050565b7f4e487b7100000000000000000000000000000000000000000000000000000000600052601160045260246000fd5b600062000b438262000823565b915062000b508362000823565b925082820190508082111562000b6b5762000b6a62000b07565b5b92915050565b62000b7c8162000823565b82525050565b600060408201905062000b99600083018562000b71565b62000ba8602083018462000b71565b9392505050565b7f4e487b7100000000000000000000000000000000000000000000000000000000600052603260045260246000fd5b600073ffffffffffffffffffffffffffffffffffffffff82169050919050565b600062000c0b8262000bde565b9050919050565b62000c1d8162000bfe565b82525050565b600081519050919050565b600082825260208201905092915050565b60005b8381101562000c5f57808201518184015260208101905062000c42565b60008484015250505050565b6000601f19601f8301169050919050565b600062000c898262000c23565b62000c95818562000c2e565b935062000ca781856020860162000c3f565b62000cb28162000c6b565b840191505092915050565b600060a08201905062000cd4600083018862000c12565b62000ce3602083018762000c12565b62000cf2604083018662000b71565b62000d01606083018562000b71565b818103608083015262000d15818462000c7c565b90509695505050505050565b6000604051905090565b600080fd5b60007fffffffff0000000000000000000000000000000000000000000000000000000082169050919050565b62000d678162000d30565b811462000d7357600080fd5b50565b60008151905062000d878162000d5c565b92915050565b60006020828403121562000da65762000da562000d2b565b5b600062000db68482850162000d76565b91505092915050565b60008160e01c9050919050565b600060033d111562000dee5760046000803e62000deb60005162000dbf565b90505b90565b62000dfc8262000c6b565b810181811067ffffffffffffffff8211171562000e1e5762000e1d62000708565b5b80604052505050565b600060443d1062000ebf5762000e3c62000d21565b60043d036004823e80513d602482011167ffffffffffffffff8211171562000e6657505062000ebf565b808201805167ffffffffffffffff81111562000e86575050505062000ebf565b80602083010160043d03850181111562000ea557505050505062000ebf565b62000eb68260200185018662000df1565b82955050505050505b90565b600062000ecf82620006fd565b62000edb818562000a5e565b935062000eed81856020860162000c3f565b62000ef88162000c6b565b840191505092915050565b6000602082019050818103600083015262000f1f818462000ec2565b905092915050565b7f455243313135353a207472616e7366657220746f206e6f6e2d4552433131353560008201527f526563656976657220696d706c656d656e746572000000000000000000000000602082015250565b600062000f8560348362000a5e565b915062000f928262000f27565b604082019050919050565b6000602082019050818103600083015262000fb88162000f76565b9050919050565b7f455243313135353a204552433131353552656365697665722072656a6563746560008201527f6420746f6b656e73000000000000000000000000000000000000000000000000602082015250565b60006200101d60288362000a5e565b91506200102a8262000fbf565b604082019050919050565b6000602082019050818103600083015262001050816200100e565b9050919050565b613e7580620010676000396000f3fe608060405234801561001057600080fd5b50600436106101575760003560e01c806383ca4b6f116100c3578063b390c0ab1161007c578063b390c0ab146103a0578063c87b56dd146103bc578063d81d0a15146103ec578063e985e9c514610408578063f242432a14610438578063f2fde38b1461045457610157565b806383ca4b6f146102f2578063862440e21461030e5780638da5cb5b1461032a57806395d89b41146103485780639ce56ad414610366578063a22cb4651461038457610157565b80632eb2c2d6116101155780632eb2c2d6146102445780634e1273f414610260578063510f410414610290578063715018a6146102ac57806374fb3c5d146102b657806383824647146102d457610157565b8062fdd58e1461015c57806301ffc9a71461018c57806306fdde03146101bc5780630e89341c146101da578063156e29f61461020a57806321470f3714610226575b600080fd5b61017660048036038101906101719190612436565b610470565b6040516101839190612485565b60405180910390f35b6101a660048036038101906101a191906124f8565b610538565b6040516101b39190612540565b60405180910390f35b6101c461061a565b6040516101d191906125eb565b60405180910390f35b6101f460048036038101906101ef919061260d565b6106a8565b60405161020191906125eb565b60405180910390f35b610224600480360381019061021f919061263a565b61074d565b005b61022e610775565b60405161023b9190612485565b60405180910390f35b61025e6004803603810190610259919061288a565b61077a565b005b61027a60048036038101906102759190612a1c565b61081b565b6040516102879190612b52565b60405180910390f35b6102aa60048036038101906102a59190612b74565b610934565b005b6102b4610969565b005b6102be61097d565b6040516102cb9190612485565b60405180910390f35b6102dc610982565b6040516102e99190612485565b60405180910390f35b61030c60048036038101906103079190612c5f565b610987565b005b61032860048036038101906103239190612d78565b610996565b005b6103326109fb565b60405161033f9190612de3565b60405180910390f35b610350610a25565b60405161035d91906125eb565b60405180910390f35b61036e610ab3565b60405161037b9190612485565b60405180910390f35b61039e60048036038101906103999190612e2a565b610ab8565b005b6103ba60048036038101906103b59190612e6a565b610ace565b005b6103d660048036038101906103d1919061260d565b610ae5565b6040516103e391906125eb565b60405180910390f35b61040660048036038101906104019190612eaa565b610b85565b005b610422600480360381019061041d9190612f35565b610bad565b60405161042f9190612540565b60405180910390f35b610452600480360381019061044d9190612f75565b610c41565b005b61046e6004803603810190610469919061300c565b610ce2565b005b60008073ffffffffffffffffffffffffffffffffffffffff168373ffffffffffffffffffffffffffffffffffffffff16036104e0576040517f08c379a00000000000000000000000000000000000000000000000000000000081526004016104d7906130ab565b60405180910390fd5b60008083815260200190815260200160002060008473ffffffffffffffffffffffffffffffffffffffff1673ffffffffffffffffffffffffffffffffffffffff16815260200190815260200160002054905092915050565b60007fd9b67a26000000000000000000000000000000000000000000000000000000007bffffffffffffffffffffffffffffffffffffffffffffffffffffffff1916827bffffffffffffffffffffffffffffffffffffffffffffffffffffffff1916148061060357507f0e89341c000000000000000000000000000000000000000000000000000000007bffffffffffffffffffffffffffffffffffffffffffffffffffffffff1916827bffffffffffffffffffffffffffffffffffffffffffffffffffffffff1916145b80610613575061061282610d88565b5b9050919050565b60048054610627906130fa565b80601f0160208091040260200160405190810160405280929190818152602001828054610653906130fa565b80156106a05780601f10610675576101008083540402835291602001916106a0565b820191906000526020600020905b81548152906001019060200180831161068357829003601f168201915b505050505081565b60606006600083815260200190815260200160002080546106c8906130fa565b80601f01602080910402602001604051908101604052809291908181526020018280546106f4906130fa565b80156107415780601f1061071657610100808354040283529160200191610741565b820191906000526020600020905b81548152906001019060200180831161072457829003601f168201915b50505050509050919050565b610755610df2565b61077083838360405180602001604052806000815250610e70565b505050565b600281565b610782611020565b73ffffffffffffffffffffffffffffffffffffffff168573ffffffffffffffffffffffffffffffffffffffff1614806107c857506107c7856107c2611020565b610bad565b5b610807576040517f08c379a00000000000000000000000000000000000000000000000000000000081526004016107fe9061319d565b60405180910390fd5b6108148585858585611028565b5050505050565b60608151835114610861576040517f08c379a00000000000000000000000000000000000000000000000000000000081526004016108589061322f565b60405180910390fd5b6000835167ffffffffffffffff81111561087e5761087d612692565b5b6040519080825280602002602001820160405280156108ac5781602001602082028036833780820191505090505b50905060005b8451811015610929576108f98582815181106108d1576108d061324f565b5b60200260200101518583815181106108ec576108eb61324f565b5b6020026020010151610470565b82828151811061090c5761090b61324f565b5b60200260200101818152505080610922906132ad565b90506108b2565b508091505092915050565b61093c610df2565b610947858585611349565b61096285838360405180602001604052806000815250611617565b5050505050565b610971610df2565b61097b6000611843565b565b600181565b600381565b610992338383611349565b5050565b61099e610df2565b806006600084815260200190815260200160002090816109be91906134a1565b50817f6bb7ff708619ba0610cba295a58592e0451dee2622938c8755667688daf3529b826040516109ef91906125eb565b60405180910390a25050565b6000600360009054906101000a900473ffffffffffffffffffffffffffffffffffffffff16905090565b60058054610a32906130fa565b80601f0160208091040260200160405190810160405280929190818152602001828054610a5e906130fa565b8015610aab5780601f10610a8057610100808354040283529160200191610aab565b820191906000526020600020905b815481529060010190602001808311610a8e57829003601f168201915b505050505081565b600081565b610aca610ac3611020565b8383611909565b5050565b610ad6610df2565b610ae1338383611a75565b5050565b60066020528060005260406000206000915090508054610b04906130fa565b80601f0160208091040260200160405190810160405280929190818152602001828054610b30906130fa565b8015610b7d5780601f10610b5257610100808354040283529160200191610b7d565b820191906000526020600020905b815481529060010190602001808311610b6057829003601f168201915b505050505081565b610b8d610df2565b610ba883838360405180602001604052806000815250611617565b505050565b6000600160008473ffffffffffffffffffffffffffffffffffffffff1673ffffffffffffffffffffffffffffffffffffffff16815260200190815260200160002060008373ffffffffffffffffffffffffffffffffffffffff1673ffffffffffffffffffffffffffffffffffffffff16815260200190815260200160002060009054906101000a900460ff16905092915050565b610c49611020565b73ffffffffffffffffffffffffffffffffffffffff168573ffffffffffffffffffffffffffffffffffffffff161480610c8f5750610c8e85610c89611020565b610bad565b5b610cce576040517f08c379a0000000000000000000000000000000000000000000000000000000008152600401610cc59061319d565b60405180910390fd5b610cdb8585858585611cbb565b5050505050565b610cea610df2565b600073ffffffffffffffffffffffffffffffffffffffff168173ffffffffffffffffffffffffffffffffffffffff1603610d59576040517f08c379a0000000000000000000000000000000000000000000000000000000008152600401610d50906135e5565b60405180910390fd5b610d6281611843565b50565b6000808273ffffffffffffffffffffffffffffffffffffffff163b119050919050565b60007f01ffc9a7000000000000000000000000000000000000000000000000000000007bffffffffffffffffffffffffffffffffffffffffffffffffffffffff1916827bffffffffffffffffffffffffffffffffffffffffffffffffffffffff1916149050919050565b610dfa611020565b73ffffffffffffffffffffffffffffffffffffffff16610e186109fb565b73ffffffffffffffffffffffffffffffffffffffff1614610e6e576040517f08c379a0000000000000000000000000000000000000000000000000000000008152600401610e6590613651565b60405180910390fd5b565b600073ffffffffffffffffffffffffffffffffffffffff168473ffffffffffffffffffffffffffffffffffffffff1603610edf576040517f08c379a0000000000000000000000000000000000000000000000000000000008152600401610ed6906136e3565b60405180910390fd5b6000610ee9611020565b90506000610ef685611f56565b90506000610f0385611f56565b9050610f1483600089858589611fd0565b8460008088815260200190815260200160002060008973ffffffffffffffffffffffffffffffffffffffff1673ffffffffffffffffffffffffffffffffffffffff1681526020019081526020016000206000828254610f739190613703565b925050819055508673ffffffffffffffffffffffffffffffffffffffff16600073ffffffffffffffffffffffffffffffffffffffff168473ffffffffffffffffffffffffffffffffffffffff167fc3d58168c5ae7397731d063d5bbf3d657854427343f4c083240f7aacaa2d0f628989604051610ff1929190613737565b60405180910390a461100883600089858589611fd8565b61101783600089898989611fe0565b50505050505050565b600033905090565b815183511461106c576040517f08c379a0000000000000000000000000000000000000000000000000000000008152600401611063906137d2565b60405180910390fd5b600073ffffffffffffffffffffffffffffffffffffffff168473ffffffffffffffffffffffffffffffffffffffff16036110db576040517f08c379a00000000000000000000000000000000000000000000000000000000081526004016110d290613864565b60405180910390fd5b60006110e5611020565b90506110f5818787878787611fd0565b60005b84518110156112a65760008582815181106111165761111561324f565b5b6020026020010151905060008583815181106111355761113461324f565b5b60200260200101519050600080600084815260200190815260200160002060008b73ffffffffffffffffffffffffffffffffffffffff1673ffffffffffffffffffffffffffffffffffffffff168152602001908152602001600020549050818110156111d6576040517f08c379a00000000000000000000000000000000000000000000000000000000081526004016111cd906138f6565b60405180910390fd5b81810360008085815260200190815260200160002060008c73ffffffffffffffffffffffffffffffffffffffff1673ffffffffffffffffffffffffffffffffffffffff168152602001908152602001600020819055508160008085815260200190815260200160002060008b73ffffffffffffffffffffffffffffffffffffffff1673ffffffffffffffffffffffffffffffffffffffff168152602001908152602001600020600082825461128b9190613703565b925050819055505050508061129f906132ad565b90506110f8565b508473ffffffffffffffffffffffffffffffffffffffff168673ffffffffffffffffffffffffffffffffffffffff168273ffffffffffffffffffffffffffffffffffffffff167f4a39dc06d4c0dbc64b70af90fd698a233a518aa5d07e595d983b8c0526c8f7fb878760405161131d929190613916565b60405180910390a4611333818787878787611fd8565b6113418187878787876121b7565b505050505050565b600073ffffffffffffffffffffffffffffffffffffffff168373ffffffffffffffffffffffffffffffffffffffff16036113b8576040517f08c379a00000000000000000000000000000000000000000000000000000000081526004016113af906139bf565b60405180910390fd5b80518251146113fc576040517f08c379a00000000000000000000000000000000000000000000000000000000081526004016113f3906137d2565b60405180910390fd5b6000611406611020565b905061142681856000868660405180602001604052806000815250611fd0565b60005b83518110156115735760008482815181106114475761144661324f565b5b6020026020010151905060008483815181106114665761146561324f565b5b60200260200101519050600080600084815260200190815260200160002060008973ffffffffffffffffffffffffffffffffffffffff1673ffffffffffffffffffffffffffffffffffffffff16815260200190815260200160002054905081811015611507576040517f08c379a00000000000000000000000000000000000000000000000000000000081526004016114fe90613a51565b60405180910390fd5b81810360008085815260200190815260200160002060008a73ffffffffffffffffffffffffffffffffffffffff1673ffffffffffffffffffffffffffffffffffffffff16815260200190815260200160002081905550505050808061156b906132ad565b915050611429565b50600073ffffffffffffffffffffffffffffffffffffffff168473ffffffffffffffffffffffffffffffffffffffff168273ffffffffffffffffffffffffffffffffffffffff167f4a39dc06d4c0dbc64b70af90fd698a233a518aa5d07e595d983b8c0526c8f7fb86866040516115eb929190613916565b60405180910390a461161181856000868660405180602001604052806000815250611fd8565b50505050565b600073ffffffffffffffffffffffffffffffffffffffff168473ffffffffffffffffffffffffffffffffffffffff1603611686576040517f08c379a000000000000000000000000000000000000000000000000000000000815260040161167d906136e3565b60405180910390fd5b81518351146116ca576040517f08c379a00000000000000000000000000000000000000000000000000000000081526004016116c1906137d2565b60405180910390fd5b60006116d4611020565b90506116e581600087878787611fd0565b60005b845181101561179e578381815181106117045761170361324f565b5b60200260200101516000808784815181106117225761172161324f565b5b6020026020010151815260200190815260200160002060008873ffffffffffffffffffffffffffffffffffffffff1673ffffffffffffffffffffffffffffffffffffffff16815260200190815260200160002060008282546117849190613703565b925050819055508080611796906132ad565b9150506116e8565b508473ffffffffffffffffffffffffffffffffffffffff16600073ffffffffffffffffffffffffffffffffffffffff168273ffffffffffffffffffffffffffffffffffffffff167f4a39dc06d4c0dbc64b70af90fd698a233a518aa5d07e595d983b8c0526c8f7fb8787604051611816929190613916565b60405180910390a461182d81600087878787611fd8565b61183c816000878787876121b7565b5050505050565b6000600360009054906101000a900473ffffffffffffffffffffffffffffffffffffffff16905081600360006101000a81548173ffffffffffffffffffffffffffffffffffffffff021916908373ffffffffffffffffffffffffffffffffffffffff1602179055508173ffffffffffffffffffffffffffffffffffffffff168173ffffffffffffffffffffffffffffffffffffffff167f8be0079c531659141344cd1fd0a4f28419497f9722a3daafe3b4186f6b6457e060405160405180910390a35050565b8173ffffffffffffffffffffffffffffffffffffffff168373ffffffffffffffffffffffffffffffffffffffff1603611977576040517f08c379a000000000000000000000000000000000000000000000000000000000815260040161196e90613ae3565b60405180910390fd5b80600160008573ffffffffffffffffffffffffffffffffffffffff1673ffffffffffffffffffffffffffffffffffffffff16815260200190815260200160002060008473ffffffffffffffffffffffffffffffffffffffff1673ffffffffffffffffffffffffffffffffffffffff16815260200190815260200160002060006101000a81548160ff0219169083151502179055508173ffffffffffffffffffffffffffffffffffffffff168373ffffffffffffffffffffffffffffffffffffffff167f17307eab39ab6107e8899845ad3d59bd9653f200f220920489ca2b5937696c3183604051611a689190612540565b60405180910390a3505050565b600073ffffffffffffffffffffffffffffffffffffffff168373ffffffffffffffffffffffffffffffffffffffff1603611ae4576040517f08c379a0000000000000000000000000000000000000000000000000000000008152600401611adb906139bf565b60405180910390fd5b6000611aee611020565b90506000611afb84611f56565b90506000611b0884611f56565b9050611b2883876000858560405180602001604052806000815250611fd0565b600080600087815260200190815260200160002060008873ffffffffffffffffffffffffffffffffffffffff1673ffffffffffffffffffffffffffffffffffffffff16815260200190815260200160002054905084811015611bbf576040517f08c379a0000000000000000000000000000000000000000000000000000000008152600401611bb690613a51565b60405180910390fd5b84810360008088815260200190815260200160002060008973ffffffffffffffffffffffffffffffffffffffff1673ffffffffffffffffffffffffffffffffffffffff16815260200190815260200160002081905550600073ffffffffffffffffffffffffffffffffffffffff168773ffffffffffffffffffffffffffffffffffffffff168573ffffffffffffffffffffffffffffffffffffffff167fc3d58168c5ae7397731d063d5bbf3d657854427343f4c083240f7aacaa2d0f628989604051611c8c929190613737565b60405180910390a4611cb284886000868660405180602001604052806000815250611fd8565b50505050505050565b600073ffffffffffffffffffffffffffffffffffffffff168473ffffffffffffffffffffffffffffffffffffffff1603611d2a576040517f08c379a0000000000000000000000000000000000000000000000000000000008152600401611d2190613864565b60405180910390fd5b6000611d34611020565b90506000611d4185611f56565b90506000611d4e85611f56565b9050611d5e838989858589611fd0565b600080600088815260200190815260200160002060008a73ffffffffffffffffffffffffffffffffffffffff1673ffffffffffffffffffffffffffffffffffffffff16815260200190815260200160002054905085811015611df5576040517f08c379a0000000000000000000000000000000000000000000000000000000008152600401611dec906138f6565b60405180910390fd5b85810360008089815260200190815260200160002060008b73ffffffffffffffffffffffffffffffffffffffff1673ffffffffffffffffffffffffffffffffffffffff168152602001908152602001600020819055508560008089815260200190815260200160002060008a73ffffffffffffffffffffffffffffffffffffffff1673ffffffffffffffffffffffffffffffffffffffff1681526020019081526020016000206000828254611eaa9190613703565b925050819055508773ffffffffffffffffffffffffffffffffffffffff168973ffffffffffffffffffffffffffffffffffffffff168573ffffffffffffffffffffffffffffffffffffffff167fc3d58168c5ae7397731d063d5bbf3d657854427343f4c083240f7aacaa2d0f628a8a604051611f27929190613737565b60405180910390a4611f3d848a8a86868a611fd8565b611f4b848a8a8a8a8a611fe0565b505050505050505050565b60606000600167ffffffffffffffff811115611f7557611f74612692565b5b604051908082528060200260200182016040528015611fa35781602001602082028036833780820191505090505b5090508281600081518110611fbb57611fba61324f565b5b60200260200101818152505080915050919050565b505050505050565b505050505050565b611fff8473ffffffffffffffffffffffffffffffffffffffff16610d65565b156121af578373ffffffffffffffffffffffffffffffffffffffff1663f23a6e6187878686866040518663ffffffff1660e01b8152600401612045959493929190613b58565b6020604051808303816000875af192505050801561208157506040513d601f19601f8201168201806040525081019061207e9190613bc7565b60015b6121265761208d613c01565b806308c379a0036120e957506120a1613c23565b806120ac57506120eb565b806040517f08c379a00000000000000000000000000000000000000000000000000000000081526004016120e091906125eb565b60405180910390fd5b505b6040517f08c379a000000000000000000000000000000000000000000000000000000000815260040161211d90613d25565b60405180910390fd5b63f23a6e6160e01b7bffffffffffffffffffffffffffffffffffffffffffffffffffffffff1916817bffffffffffffffffffffffffffffffffffffffffffffffffffffffff1916146121ad576040517f08c379a00000000000000000000000000000000000000000000000000000000081526004016121a490613db7565b60405180910390fd5b505b505050505050565b6121d68473ffffffffffffffffffffffffffffffffffffffff16610d65565b15612386578373ffffffffffffffffffffffffffffffffffffffff1663bc197c8187878686866040518663ffffffff1660e01b815260040161221c959493929190613dd7565b6020604051808303816000875af192505050801561225857506040513d601f19601f820116820180604052508101906122559190613bc7565b60015b6122fd57612264613c01565b806308c379a0036122c05750612278613c23565b8061228357506122c2565b806040517f08c379a00000000000000000000000000000000000000000000000000000000081526004016122b791906125eb565b60405180910390fd5b505b6040517f08c379a00000000000000000000000000000000000000000000000000000000081526004016122f490613d25565b60405180910390fd5b63bc197c8160e01b7bffffffffffffffffffffffffffffffffffffffffffffffffffffffff1916817bffffffffffffffffffffffffffffffffffffffffffffffffffffffff191614612384576040517f08c379a000000000000000000000000000000000000000000000000000000000815260040161237b90613db7565b60405180910390fd5b505b505050505050565b6000604051905090565b600080fd5b600080fd5b600073ffffffffffffffffffffffffffffffffffffffff82169050919050565b60006123cd826123a2565b9050919050565b6123dd816123c2565b81146123e857600080fd5b50565b6000813590506123fa816123d4565b92915050565b6000819050919050565b61241381612400565b811461241e57600080fd5b50565b6000813590506124308161240a565b92915050565b6000806040838503121561244d5761244c612398565b5b600061245b858286016123eb565b925050602061246c85828601612421565b9150509250929050565b61247f81612400565b82525050565b600060208201905061249a6000830184612476565b92915050565b60007fffffffff0000000000000000000000000000000000000000000000000000000082169050919050565b6124d5816124a0565b81146124e057600080fd5b50565b6000813590506124f2816124cc565b92915050565b60006020828403121561250e5761250d612398565b5b600061251c848285016124e3565b91505092915050565b60008115159050919050565b61253a81612525565b82525050565b60006020820190506125556000830184612531565b92915050565b600081519050919050565b600082825260208201905092915050565b60005b8381101561259557808201518184015260208101905061257a565b60008484015250505050565b6000601f19601f8301169050919050565b60006125bd8261255b565b6125c78185612566565b93506125d7818560208601612577565b6125e0816125a1565b840191505092915050565b6000602082019050818103600083015261260581846125b2565b905092915050565b60006020828403121561262357612622612398565b5b600061263184828501612421565b91505092915050565b60008060006060848603121561265357612652612398565b5b6000612661868287016123eb565b935050602061267286828701612421565b925050604061268386828701612421565b9150509250925092565b600080fd5b7f4e487b7100000000000000000000000000000000000000000000000000000000600052604160045260246000fd5b6126ca826125a1565b810181811067ffffffffffffffff821117156126e9576126e8612692565b5b80604052505050565b60006126fc61238e565b905061270882826126c1565b919050565b600067ffffffffffffffff82111561272857612727612692565b5b602082029050602081019050919050565b600080fd5b600061275161274c8461270d565b6126f2565b9050808382526020820190506020840283018581111561277457612773612739565b5b835b8181101561279d57806127898882612421565b845260208401935050602081019050612776565b5050509392505050565b600082601f8301126127bc576127bb61268d565b5b81356127cc84826020860161273e565b91505092915050565b600080fd5b600067ffffffffffffffff8211156127f5576127f4612692565b5b6127fe826125a1565b9050602081019050919050565b82818337600083830152505050565b600061282d612828846127da565b6126f2565b905082815260208101848484011115612849576128486127d5565b5b61285484828561280b565b509392505050565b600082601f8301126128715761287061268d565b5b813561288184826020860161281a565b91505092915050565b600080600080600060a086880312156128a6576128a5612398565b5b60006128b4888289016123eb565b95505060206128c5888289016123eb565b945050604086013567ffffffffffffffff8111156128e6576128e561239d565b5b6128f2888289016127a7565b935050606086013567ffffffffffffffff8111156129135761291261239d565b5b61291f888289016127a7565b925050608086013567ffffffffffffffff8111156129405761293f61239d565b5b61294c8882890161285c565b9150509295509295909350565b600067ffffffffffffffff82111561297457612973612692565b5b602082029050602081019050919050565b600061299861299384612959565b6126f2565b905080838252602082019050602084028301858111156129bb576129ba612739565b5b835b818110156129e457806129d088826123eb565b8452602084019350506020810190506129bd565b5050509392505050565b600082601f830112612a0357612a0261268d565b5b8135612a13848260208601612985565b91505092915050565b60008060408385031215612a3357612a32612398565b5b600083013567ffffffffffffffff811115612a5157612a5061239d565b5b612a5d858286016129ee565b925050602083013567ffffffffffffffff811115612a7e57612a7d61239d565b5b612a8a858286016127a7565b9150509250929050565b600081519050919050565b600082825260208201905092915050565b6000819050602082019050919050565b612ac981612400565b82525050565b6000612adb8383612ac0565b60208301905092915050565b6000602082019050919050565b6000612aff82612a94565b612b098185612a9f565b9350612b1483612ab0565b8060005b83811015612b45578151612b2c8882612acf565b9750612b3783612ae7565b925050600181019050612b18565b5085935050505092915050565b60006020820190508181036000830152612b6c8184612af4565b905092915050565b600080600080600060a08688031215612b9057612b8f612398565b5b6000612b9e888289016123eb565b955050602086013567ffffffffffffffff811115612bbf57612bbe61239d565b5b612bcb888289016127a7565b945050604086013567ffffffffffffffff811115612bec57612beb61239d565b5b612bf8888289016127a7565b935050606086013567ffffffffffffffff811115612c1957612c1861239d565b5b612c25888289016127a7565b925050608086013567ffffffffffffffff811115612c4657612c4561239d565b5b612c52888289016127a7565b9150509295509295909350565b60008060408385031215612c7657612c75612398565b5b600083013567ffffffffffffffff811115612c9457612c9361239d565b5b612ca0858286016127a7565b925050602083013567ffffffffffffffff811115612cc157612cc061239d565b5b612ccd858286016127a7565b9150509250929050565b600067ffffffffffffffff821115612cf257612cf1612692565b5b612cfb826125a1565b9050602081019050919050565b6000612d1b612d1684612cd7565b6126f2565b905082815260208101848484011115612d3757612d366127d5565b5b612d4284828561280b565b509392505050565b600082601f830112612d5f57612d5e61268d565b5b8135612d6f848260208601612d08565b91505092915050565b60008060408385031215612d8f57612d8e612398565b5b6000612d9d85828601612421565b925050602083013567ffffffffffffffff811115612dbe57612dbd61239d565b5b612dca85828601612d4a565b9150509250929050565b612ddd816123c2565b82525050565b6000602082019050612df86000830184612dd4565b92915050565b612e0781612525565b8114612e1257600080fd5b50565b600081359050612e2481612dfe565b92915050565b60008060408385031215612e4157612e40612398565b5b6000612e4f858286016123eb565b9250506020612e6085828601612e15565b9150509250929050565b60008060408385031215612e8157612e80612398565b5b6000612e8f85828601612421565b9250506020612ea085828601612421565b9150509250929050565b600080600060608486031215612ec357612ec2612398565b5b6000612ed1868287016123eb565b935050602084013567ffffffffffffffff811115612ef257612ef161239d565b5b612efe868287016127a7565b925050604084013567ffffffffffffffff811115612f1f57612f1e61239d565b5b612f2b868287016127a7565b9150509250925092565b60008060408385031215612f4c57612f4b612398565b5b6000612f5a858286016123eb565b9250506020612f6b858286016123eb565b9150509250929050565b600080600080600060a08688031215612f9157612f90612398565b5b6000612f9f888289016123eb565b9550506020612fb0888289016123eb565b9450506040612fc188828901612421565b9350506060612fd288828901612421565b925050608086013567ffffffffffffffff811115612ff357612ff261239d565b5b612fff8882890161285c565b9150509295509295909350565b60006020828403121561302257613021612398565b5b6000613030848285016123eb565b91505092915050565b7f455243313135353a2061646472657373207a65726f206973206e6f742061207660008201527f616c6964206f776e657200000000000000000000000000000000000000000000602082015250565b6000613095602a83612566565b91506130a082613039565b604082019050919050565b600060208201905081810360008301526130c481613088565b9050919050565b7f4e487b7100000000000000000000000000000000000000000000000000000000600052602260045260246000fd5b6000600282049050600182168061311257607f821691505b602082108103613125576131246130cb565b5b50919050565b7f455243313135353a2063616c6c6572206973206e6f7420746f6b656e206f776e60008201527f6572206f7220617070726f766564000000000000000000000000000000000000602082015250565b6000613187602e83612566565b91506131928261312b565b604082019050919050565b600060208201905081810360008301526131b68161317a565b9050919050565b7f455243313135353a206163636f756e747320616e6420696473206c656e67746860008201527f206d69736d617463680000000000000000000000000000000000000000000000602082015250565b6000613219602983612566565b9150613224826131bd565b604082019050919050565b600060208201905081810360008301526132488161320c565b9050919050565b7f4e487b7100000000000000000000000000000000000000000000000000000000600052603260045260246000fd5b7f4e487b7100000000000000000000000000000000000000000000000000000000600052601160045260246000fd5b60006132b882612400565b91507fffffffffffffffffffffffffffffffffffffffffffffffffffffffffffffffff82036132ea576132e961327e565b5b600182019050919050565b60008190508160005260206000209050919050565b60006020601f8301049050919050565b600082821b905092915050565b6000600883026133577fffffffffffffffffffffffffffffffffffffffffffffffffffffffffffffffff8261331a565b613361868361331a565b95508019841693508086168417925050509392505050565b6000819050919050565b600061339e61339961339484612400565b613379565b612400565b9050919050565b6000819050919050565b6133b883613383565b6133cc6133c4826133a5565b848454613327565b825550505050565b600090565b6133e16133d4565b6133ec8184846133af565b505050565b5b81811015613410576134056000826133d9565b6001810190506133f2565b5050565b601f82111561345557613426816132f5565b61342f8461330a565b8101602085101561343e578190505b61345261344a8561330a565b8301826133f1565b50505b505050565b600082821c905092915050565b60006134786000198460080261345a565b1980831691505092915050565b60006134918383613467565b9150826002028217905092915050565b6134aa8261255b565b67ffffffffffffffff8111156134c3576134c2612692565b5b6134cd82546130fa565b6134d8828285613414565b600060209050601f83116001811461350b57600084156134f9578287015190505b6135038582613485565b86555061356b565b601f198416613519866132f5565b60005b828110156135415784890151825560018201915060208501945060208101905061351c565b8683101561355e578489015161355a601f891682613467565b8355505b6001600288020188555050505b505050505050565b7f4f776e61626c653a206e6577206f776e657220697320746865207a65726f206160008201527f6464726573730000000000000000000000000000000000000000000000000000602082015250565b60006135cf602683612566565b91506135da82613573565b604082019050919050565b600060208201905081810360008301526135fe816135c2565b9050919050565b7f4f776e61626c653a2063616c6c6572206973206e6f7420746865206f776e6572600082015250565b600061363b602083612566565b915061364682613605565b602082019050919050565b6000602082019050818103600083015261366a8161362e565b9050919050565b7f455243313135353a206d696e7420746f20746865207a65726f2061646472657360008201527f7300000000000000000000000000000000000000000000000000000000000000602082015250565b60006136cd602183612566565b91506136d882613671565b604082019050919050565b600060208201905081810360008301526136fc816136c0565b9050919050565b600061370e82612400565b915061371983612400565b92508282019050808211156137315761373061327e565b5b92915050565b600060408201905061374c6000830185612476565b6137596020830184612476565b9392505050565b7f455243313135353a2069647320616e6420616d6f756e7473206c656e6774682060008201527f6d69736d61746368000000000000000000000000000000000000000000000000602082015250565b60006137bc602883612566565b91506137c782613760565b604082019050919050565b600060208201905081810360008301526137eb816137af565b9050919050565b7f455243313135353a207472616e7366657220746f20746865207a65726f20616460008201527f6472657373000000000000000000000000000000000000000000000000000000602082015250565b600061384e602583612566565b9150613859826137f2565b604082019050919050565b6000602082019050818103600083015261387d81613841565b9050919050565b7f455243313135353a20696e73756666696369656e742062616c616e636520666f60008201527f72207472616e7366657200000000000000000000000000000000000000000000602082015250565b60006138e0602a83612566565b91506138eb82613884565b604082019050919050565b6000602082019050818103600083015261390f816138d3565b9050919050565b600060408201905081810360008301526139308185612af4565b905081810360208301526139448184612af4565b90509392505050565b7f455243313135353a206275726e2066726f6d20746865207a65726f206164647260008201527f6573730000000000000000000000000000000000000000000000000000000000602082015250565b60006139a9602383612566565b91506139b48261394d565b604082019050919050565b600060208201905081810360008301526139d88161399c565b9050919050565b7f455243313135353a206275726e20616d6f756e7420657863656564732062616c60008201527f616e636500000000000000000000000000000000000000000000000000000000602082015250565b6000613a3b602483612566565b9150613a46826139df565b604082019050919050565b60006020820190508181036000830152613a6a81613a2e565b9050919050565b7f455243313135353a2073657474696e6720617070726f76616c2073746174757360008201527f20666f722073656c660000000000000000000000000000000000000000000000602082015250565b6000613acd602983612566565b9150613ad882613a71565b604082019050919050565b60006020820190508181036000830152613afc81613ac0565b9050919050565b600081519050919050565b600082825260208201905092915050565b6000613b2a82613b03565b613b348185613b0e565b9350613b44818560208601612577565b613b4d816125a1565b840191505092915050565b600060a082019050613b6d6000830188612dd4565b613b7a6020830187612dd4565b613b876040830186612476565b613b946060830185612476565b8181036080830152613ba68184613b1f565b90509695505050505050565b600081519050613bc1816124cc565b92915050565b600060208284031215613bdd57613bdc612398565b5b6000613beb84828501613bb2565b91505092915050565b60008160e01c9050919050565b600060033d1115613c205760046000803e613c1d600051613bf4565b90505b90565b600060443d10613cb057613c3561238e565b60043d036004823e80513d602482011167ffffffffffffffff82111715613c5d575050613cb0565b808201805167ffffffffffffffff811115613c7b5750505050613cb0565b80602083010160043d038501811115613c98575050505050613cb0565b613ca7826020018501866126c1565b82955050505050505b90565b7f455243313135353a207472616e7366657220746f206e6f6e2d4552433131353560008201527f526563656976657220696d706c656d656e746572000000000000000000000000602082015250565b6000613d0f603483612566565b9150613d1a82613cb3565b604082019050919050565b60006020820190508181036000830152613d3e81613d02565b9050919050565b7f455243313135353a204552433131353552656365697665722072656a6563746560008201527f6420746f6b656e73000000000000000000000000000000000000000000000000602082015250565b6000613da1602883612566565b9150613dac82613d45565b604082019050919050565b60006020820190508181036000830152613dd081613d94565b9050919050565b600060a082019050613dec6000830188612dd4565b613df96020830187612dd4565b8181036040830152613e0b8186612af4565b90508181036060830152613e1f8185612af4565b90508181036080830152613e338184613b1f565b9050969550505050505056fea2646970667358221220f5457f12455357a326a7bef8c4c1ef31fa89fc0e1853f416040e6718d2c6e45464736f6c634300081100332f697066732f516d5168524c7944646853355578666f3765524e4a7a363432424158774e334b48614567786a4c666933574641662f6d657461646174612e6a736f6e",
  "linkReferences": {},
  "deployedLinkReferences": {}
}